:100000000C9464000C948C000C948C000C948C0068
:100010000C948C000C948C000C948C000C94520664
:100020000C948C000C948C000C948C000C948C0020
:100030000C948C000C948C000C948C000C948C0010
:100040000C9408060C948C000C94D4060C94AE0608
:100050000C948C000C948C000C948C000C948C00F0
:100060000C9406070C948C0000000000230026006E
:1000700029000200000000240027002A00000000E0
:1000800000250028002B00040404040404040402D6
:100090000202020202030303030303010204081025
:1000A00020408001020408102001020408102000F2
:1000B0000000080002010000030407000000000027
:1000C000000000002508720C11241FBECFEFD8E0FD
:1000D000DEBFCDBF23E0AEEEB1E001C01D92A33B79
:1000E000B207E1F711E0A0E0B1E0E8E2FEE102C012
:1000F00005900D92AE3EB107D9F710E0C3E6D0E00F
:1001000004C02197FE010E940F0DC236D107C9F726
:100110000E94A3080C94070F0C940000833081F018
:1001200028F4813099F08230A9F008958730A9F041
:100130008830C9F08430B1F4809180008F7D03C095
:10014000809180008F7780938000089584B58F77A9
:1001500084BD089584B58F7DFBCF8091B0008F77EB
:100160008093B00008958091B0008F7DF9CF1F93E8
:10017000CF93DF93282F30E0F901E155FF4F8491B1
:10018000F901E556FF4FD491F901E957FF4FC491AA
:10019000CC23A9F0162F81110E948E00EC2FF0E0E5
:1001A000EE0FFF1FE358FF4FA591B4918FB7F8945E
:1001B000EC91111108C0D095DE23DC938FBFDF9145
:1001C000CF911F910895DE2BF8CFCF93DF9390E06E
:1001D000FC01E556FF4F249189579F4FFC01849104
:1001E0008823D1F090E0880F991FFC01ED58FF4F54
:1001F000A591B491FC01E358FF4FC591D4916230B1
:1002000071F49FB7F8943C91822F809583238C934F
:10021000E8812E2B28839FBFDF91CF9108958FB760
:10022000F894EC912E2B2C938FBFF6CF3FB7F89418
:100230008091BF029091C002A091C102B091C20210
:1002400026B5A89B05C02F3F19F00196A11DB11D31
:100250003FBFBA2FA92F982F8827BC01CD01620F6D
:10026000711D811D911D42E0660F771F881F991F28
:100270004A95D1F708958F929F92AF92BF92CF92F5
:10028000DF92EF92FF924B015C010E9416016B011D
:100290007C010E9416016C197D098E099F09683E38
:1002A000734081059105A8F321E0821A9108A10805
:1002B000B10888EEC80E83E0D81EE11CF11C811441
:1002C0009104A104B10429F7FF90EF90DF90CF9043
:1002D000BF90AF909F908F9008950895089590914A
:1002E000000189130BC0E2E7F0E0E4919FEF9093E7
:1002F0000001E13049F028F0E23061F060E00C9458
:10030000B70010926E00FACF90916F009D7F90938E
:100310006F00F4CF909170009D7F9093700091E0FA
:100320009093B0009091B100987F94609093B10049
:100330001092B300E3CFAF92BF92CF92DF92EF92D1
:10034000FF920F931F93CF93DF936C017B018B017F
:10035000040F151FEB015E01AE18BF08C017D107CF
:1003600059F06991D601ED91FC910190F081E02D59
:10037000C6010995892B79F7C501DF91CF911F91AE
:100380000F91FF90EF90DF90CF90BF90AF900895C6
:10039000FC01538D448D252F30E0842F90E0821B8B
:1003A000930B541710F0CF96089501970895FC0110
:1003B000918D828D981761F0A28DAE0FBF2FB11D68
:1003C0005D968C91928D9F5F9F73928F90E00895C0
:1003D0008FEF9FEF0895FC01918D828D981731F07A
:1003E000828DE80FF11D858D90E008958FEF9FEFCE
:1003F0000895FC01918D228D892F90E0805C9F4FA4
:10040000821B91098F739927089583EC92E00E94D3
:10041000F90121E0892B09F420E0822F089580E082
:1004200090E0892B29F00E94050281110C940000B4
:100430000895FC01A48DA80FB92FB11DA35ABF4F79
:100440002C91848D90E001968F739927848FA689D3
:10045000B7892C93A089B1898C91837080648C9327
:10046000938D848D981306C00288F389E02D8081D6
:100470008F7D80830895EF92FF920F931F93CF9308
:10048000DF93EC0181E0888F9B8D8C8D98131AC0CF
:10049000E889F989808185FF15C09FB7F894EE89B6
:1004A000FF896083E889F989808183708064808313
:1004B0009FBF81E090E0DF91CF911F910F91FF905E
:1004C000EF900895F62E0B8D10E00F5F1F4F0F7306
:1004D0001127E02E8C8D8E110CC00FB607FCFACFC1
:1004E000E889F989808185FFF5CFCE010E94190244
:1004F000F1CFEB8DEC0FFD2FF11DE35AFF4FF08292
:100500009FB7F8940B8FEA89FB8980818062CFCFF7
:10051000CF93DF93EC01888D8823B9F0AA89BB893A
:10052000E889F9898C9185FD03C0808186FD0DC025
:100530000FB607FCF7CF8C9185FFF2CF808185FF46
:10054000EDCFCE010E941902E9CFDF91CF9108953E
:10055000089520912F02260F3327331F21323105B2
:10056000ECF420917802FC0190E080E0243069F006
:1005700082E00895A0912F022191AC01415F5D4F6F
:10058000A40FB52FB11D2C930196861798F3809177
:100590002F02680F60932F0280E0089581E0089594
:1005A0001092780281E0809377021092520261E00B
:1005B00082E10E94B70061E083E10E94B700E9EBAD
:1005C000F0E080818E7F808380818D7F808388E4CE
:1005D0008093B80085E48093BC000895CF93DF93A7
:1005E00091E090930E028823B9F0C091B800D091A9
:1005F000BA008091BC008A7B8093BC0060E082E1FD
:100600000E94B70060E083E10E94B7000E94D00220
:10061000D093BA00C093B800DF91CF9108950895A8
:10062000E091A7028091A602E81730F4F0E0E251D1
:10063000FE4F808190E008958FEF9FEF0895909195
:10064000A7028091A6022FEF3FEF981748F4E92FF9
:10065000F0E0E251FE4F208130E09F5F9093A702CF
:10066000C90108958091A6029091A702891B990B58
:100670000895CF92DF92EF92FF920F931F93CF9343
:10068000DF937C01CB018A0120917E02222389F035
:10069000EB016B01C40ED51ECC15DD0569F0699127
:1006A000D701ED91FC910190F081E02DC7010995F2
:1006B000F3CF642F0E94A902C801DF91CF911F914F
:1006C0000F91FF90EF90DF90CF900895CF93DF933D
:1006D0001F92CDB7DEB7698320917E022223F9F005
:1006E0002091A402203258F021E030E0FC01338355
:1006F000228390E080E00F90DF91CF910895809168
:10070000A502E82FF0E0E158FD4F998190838F5FBB
:100710008093A5028093A40281E090E0ECCF61E099
:10072000CE0101960E94A902F7CFCF92DF92EF92FD
:10073000FF920F931F93CF93DF93FC01C48121E0BD
:1007400020937E02C0939F021092A5021092A402F1
:100750008485682B80E693E00E946603D091A40212
:10076000D13208F092C00E9416016B017C01809189
:100770007802811165C082E08093780281E08093E5
:1007800077028FEF8093760210927502D0937402F5
:10079000AFE7B2E0E4E5F2E080E0D81385C0109264
:1007A000530280915302CC0FC82BC0935302809107
:1007B0005202813009F07CC0109252020E94160150
:1007C0006B017C01809153028093BB0080917A027F
:1007D00090917B02A0917C02B0917D02892B8A2BA3
:1007E0008B2B99F00E94160100917A0210917B02E6
:1007F00020917C0230917D026C197D098E099F0940
:100800000617170728073907E0F18091BC0083FD20
:10081000D9CF85EC8093BC000E9416016B017C014E
:1008200080917802823009F445C0809176028F3F32
:1008300061F180917602803241F18091760225C08B
:1008400080917A0290917B02A0917C02B0917D020E
:10085000892B8A2B8B2B09F48ACF0E9416010091D9
:100860007A0210917B0220917C0230917D026C19FA
:100870007D098E099F09061717072807390708F011
:1008800076CF809179020E94EE021092A50210921A
:10089000A40210927E02DF91CF911F910F91FF90E1
:1008A000EF90DF90CF9008959D9191938F5F75CFDA
:1008B00085EEB0CF80917A0290917B02A0917C026C
:1008C000B0917D02892B8A2B8B2B09F4A9CF0E9432
:1008D000160100917A0210917B0220917C023091E6
:1008E0007D026C197D098E099F09061717072807D5
:1008F000390708F095CFC5CF90E080E008950F93B9
:100900001F93CF938C01C62F0E9495036C2F6460B8
:10091000C8010E9495036C2F6B7FC8010E9495034C
:1009200083EC90E00197F1F7CF911F910F9108951B
:100930000F931F93CF93DF938C01D62FC42F607F2B
:10094000642B0E947F0480E1D89FB00111246C2B9E
:10095000C801DF91CF911F910F910C947F04CF9329
:10096000DF93CDB7DEB728970FB6F894DEBF0FBE82
:10097000CDBF98E0E7E0F1E0DE01119601900D9225
:100980009A95E1F79091AA03981708F48FEF90E0F9
:10099000880F991F21E030E02C0F3D1F820F931F1D
:1009A000FC016081606840E082EA93E028960FB61F
:1009B000F894DEBF0FBECDBFDF91CF910C949804A9
:1009C00040E061E082EA93E00E9498048BE39FE1BB
:1009D0000197F1F78091AB03882319F080E00C9424
:1009E000AF04089541E00E94980481E090E00895EA
:1009F000CF93DF93EC0188819981009711F00E94D9
:100A0000B10D198218821D821C821B821A82DF910D
:100A1000CF910895FC0180819181009711F00C9491
:100A2000B10D0895FB0101900020E9F73197AF0166
:100A3000461B570BDC01ED91FC910280F381E02D08
:100A40000994CF93DF93BC0183EC92E00E941205DE
:100A5000EC0161E571E083EC92E00E9412058C0FDD
:100A60009D1FDF91CF9108950F931F93CF93DF9335
:100A7000EC0188819981009759F02A813B812617E2
:100A8000370730F081E0DF91CF911F910F910895EA
:100A90008B016F5F7F4F0E943A0E009759F0998348
:100AA00088831B830A832C813D81232B59F7FC010A
:100AB0001082E8CF80E0E7CFEF92FF920F931F9371
:100AC000CF93DF936115710541F480E0DF91CF9101
:100AD0001F910F91FF90EF90089541155105B1F0CE
:100AE0007B01EC010C811D81040F151FB8010E94D0
:100AF0003405882351F3288139818C819D81B70188
:100B0000820F931F0E94000F1D830C8381E0DECFB4
:100B1000CF93DF93EC01FB0101900020E9F73197BF
:100B2000AF01461B570B0E945C05811103C0CE012B
:100B30000E94F804CE01DF91CF910895EF92FF92C9
:100B40000F931F93CF93DF93EC017B018A01BA01CE
:100B50000E94340581110BC0CE010E94F804CE0121
:100B6000DF91CF911F910F91FF90EF9008951D831A
:100B70000C83B701888199810E94000FF0CFFC019E
:100B8000118210821382128215821482FB0101905D
:100B90000020E9F73197AF01461B570B0C949E05D7
:100BA00085ED8093BC0080917A0290917B02A091A8
:100BB0007C02B0917D020796A11DB11D23E0B69580
:100BC000A795979587952A95D1F72091BC0024FD8C
:100BD00003C010927802089540917A0250917B02EE
:100BE00060917C0270917D02452B462B472B69F367
:100BF0000097A105B10541F02AE22A95F1F700C05E
:100C00000197A109B109E1CF809179020C94EE021C
:100C10001F920F920FB60F9211242F933F938F9331
:100C20009F93AF93BF938091BB029091BC02A09120
:100C3000BD02B091BE023091BA0223E0230F2D37DE
:100C400058F50196A11DB11D2093BA028093BB02F5
:100C50009093BC02A093BD02B093BE028091BF02EC
:100C60009091C002A091C102B091C2020196A11D53
:100C7000B11D8093BF029093C002A093C102B093B4
:100C8000C202BF91AF919F918F913F912F910F9091
:100C90000FBE0F901F90189526E8230F0296A11DF6
:100CA000B11DD2CF1F920F920FB60F9211242F9326
:100CB0003F934F935F936F937F938F939F93AF93E4
:100CC000BF93EF93FF938091AD029091AE02A091FC
:100CD000AF02B091B002892B8A2B8B2BD1F190916E
:100CE000A802E091A902F091AA028081892780835D
:100CF0008091AD029091AE02A091AF02B091B0028E
:100D0000181619061A061B069CF48091AD029091E4
:100D1000AE02A091AF02B091B0020197A109B10952
:100D20008093AD029093AE02A093AF02B093B00255
:100D3000FF91EF91BF91AF919F918F917F916F91B3
:100D40005F914F913F912F910F900FBE0F901F9089
:100D50001895809100010E946F01EACF1F920F92B7
:100D60000FB60F9211242F933F934F935F936F937E
:100D70007F938F939F93AF93BF93EF93FF9383ECF6
:100D800092E00E941902FF91EF91BF91AF919F9164
:100D90008F917F916F915F914F913F912F910F9024
:100DA0000FBE0F901F9018951F920F920FB60F92C3
:100DB00011242F938F939F93EF93FF93E091D3028E
:100DC000F091D4028081E091D902F091DA0282FDA3
:100DD0001BC090818091DC028F5F8F732091DD02B8
:100DE000821741F0E091DC02F0E0ED53FD4F958F6A
:100DF0008093DC02FF91EF919F918F912F910F9043
:100E00000FBE0F901F9018958081F4CF1F920F9204
:100E10000FB60F9211242F933F934F935F936F93CD
:100E20007F938F939F93AF93BF93EF93FF938091A3
:100E3000B900887F803609F44AC0F0F5883209F499
:100E4000A7C018F5803109F49BC0B8F4882309F4D1
:100E5000F9C0883009F494C0FF91EF91BF91AF9130
:100E60009F918F917F916F915F914F913F912F91C2
:100E70000F900FBE0F901F901895883109F488C00D
:100E8000803251F78093760214C0803409F49DC0FB
:100E900040F48033B9F38833F9F68093760285EC19
:100EA000B0C0803509F485C0883509F496C088340F
:100EB00099F60E94D005D0CF883909F48CC038F556
:100EC000883729F050F4883611F0803729F683E00E
:100ED000809378021092510257C0883809F47BC081
:100EE000803919F0803809F0B7CF809151028032F3
:100EF00008F071C0E091510281E08E0F80935102A1
:100F00008091BB00F0E0EF5CFD4F80833DC0803BF3
:100F100039F0E0F4803A09F479C0883A09F09CCFBE
:100F200084E0809378021092300210922F02E091B8
:100F3000A202F091A302099580912F0281110FC0A6
:100F400081E080932F0210920F0209C0803C09F4C7
:100F5000A6CF883C09F4A3CF883B09F07DCFE09170
:100F6000300281E08E0F80933002F0E0E15FFD4FB0
:100F700080818093BB009091300280912F0229C024
:100F8000809153028093BB0085EC8093BC0064CFBA
:100F90009091750280917402981758F5E09175024E
:100FA00081E08E0F80937502F0E0EC5AFD4F808156
:100FB000E9CFE091750281E08E0F809375028091F8
:100FC000BB00F0E0EC5AFD4F808390917502809158
:100FD00074029817C8F285E8D8CFE091750281E0D5
:100FE0008E0F809375028091BB00F0E0EC5AFD4FAC
:100FF00080838091770281115CCF81E080935202DF
:1010000084EA8093BC001092780226CF85EC80930E
:10101000BC001092780280915102803230F4E0914D
:101020005102F0E0EF5CFD4F10826091510270E0E0
:10103000E091A002F091A10281E392E00995109263
:1010400051020ACF1092760234CFE3ECF2E0138221
:10105000128288EE93E0A0E0B0E084839583A683BB
:10106000B78325E231E03183208325EC30E03587FA
:10107000248724EC30E03787268720EC30E0318B62
:10108000208B21EC30E0338B228B22EC30E0358B4F
:10109000248B26EC30E0378B268B118E128E138E2C
:1010A000148EE0E6F3E01382128284839583A68394
:1010B000B78387E391E091838083E2EAF3E01382D0
:1010C000128289E491E091838083118680E2848397
:1010D00080E1828782E08387148664E571E08CE694
:1010E00093E00E94BF0568E571E082E793E00E940B
:1010F000BF056CE571E088E793E00E94BF0560E6FC
:1011000071E08EE793E00E94BF0564E671E084E839
:1011100093E00E94BF0568E671E08AE893E00E94D0
:10112000BF056BE671E080E993E00E94BF056EE6C3
:1011300071E086E993E00E94BF0562E771E08CE907
:1011400093E00C94BF05CF93DF93CDB7DEB7AF9795
:101150000FB6F894DEBF0FBECDBF789484B5826021
:1011600084BD84B5816084BD85B5826085BD85B54B
:10117000816085BD80916E00816080936E001092C9
:101180008100809181008260809381008091810044
:1011900081608093810080918000816080938000D5
:1011A0008091B10084608093B1008091B000816033
:1011B0008093B00080917A00846080937A0080915F
:1011C0007A00826080937A0080917A0081608093B7
:1011D0007A0080917A00806880937A001092C10032
:1011E000E091D302F091D40282E08083E091CF02BB
:1011F000F091D0021082E091D102F091D2028FECF6
:1012000080831092DB02E091D702F091D80286E051
:101210008083E091D502F091D60280818061808345
:10122000E091D502F091D602808188608083E091C0
:10123000D502F091D602808180688083E091D5024A
:10124000F091D60280818F7D80831092A702109248
:10125000A6021092A5021092A4020E94D0028DE66E
:1012600091E09093A3028093A2028EE691E0909386
:10127000A1028093A0021092A7038091AD03823057
:1012800018F098E09093A7038093AA0362E370E0BC
:1012900080E090E00E943B016091AE0382EA93E01F
:1012A0000E94950368EE73E080E090E00E943B01AD
:1012B00060E382EA93E00E947F040BE416E4C80135
:1012C0000197F1F760E382EA93E00E947F04C8018E
:1012D0000197F1F760E382EA93E00E947F0483E5DF
:1012E00092E00197F1F760E282EA93E00E947F04C6
:1012F0006091A703606240E082EA93E00E94980454
:1013000084E08093A80340E06CE082EA93E00E94CE
:1013100098040E94E00482E08093A90340E066E024
:1013200082EA93E00E94980440E062E082EA93E05F
:101330000E9498048BE39FE10197F1F788E0809386
:10134000AE0360E082EA93E00E94950365E771E0F6
:1013500082EA93E00E94120581E00E94AF046EE7EA
:1013600071E082EA93E00E9412058CE891E00E940D
:1013700021050FE011E0F80180810E5F1F4F62E050
:101380000E94E500F1E001321F07A9F761E08FE05C
:101390000E94E50061E08BE00E94E50061E08CE0E6
:1013A0000E94E50061E08EE00E94E50061E08FE0D0
:1013B0000E94B70061E08BE00E94B70060E08CE023
:1013C0000E94B7006CE271E080E090E00E943B0177
:1013D0008E010F5F1F4F44244A94542C32016E013A
:1013E00088E2C80ED11C63E571E0C6010E94BF050A
:1013F0006CE6262E63E0362EEFE0F1E0FFA7EEA7C5
:10140000B12C912C812CEEA5FFA521913191FFA744
:10141000EEA73327F901E155FF4F8491F901E55615
:10142000FF4FE490F901E957FF4FF490FF2009F4D2
:10143000E4C081110E948E00EF2DF0E0EE0FFF1F3F
:10144000E859FF4FA591B491EC91EE2291E080E034
:1014500009F490E0E92EF82E65E070E080E090E07D
:101460000E943B01EA94EF2809F096C0740192E0D3
:10147000E90EF11C88E08816910419F447E8E42E7F
:10148000F12C1BA21AA21DA21CA21FA21EA24AE09E
:10149000B801C7010E94810CF80101900020E9F712
:1014A0003197AF01401B510BB801CE0182960E94CB
:1014B0009E0565EB71E0C8010E94BF054EA15FA1CA
:1014C0006AA17BA1C8010E945C05811103C0C8010B
:1014D0000E94F8046FE971E0C8010E9488055C0170
:1014E000F10144815581608171810E945C05811107
:1014F00003C0C5010E94F80462EA71E0C5010E94C0
:101500008805FC014481558160817181C6010E947A
:101510005C05C8010E940A05CE0182960E940A0558
:1015200065EA71E083EC92E00E9412059701FF0CDE
:10153000440B550B19A25E01F1E2AF0EB11CCA01BA
:10154000B9012AE030E040E050E00E94ED0C605D1F
:10155000F50162935F01211531054105510579F7C8
:10156000309729F0BF0183EC92E00E9412056FE9E9
:1015700071E083EC92E00E941205F10144815581F3
:101580006081718183EC92E00E949B0189EB91E084
:101590000E942105BB24B394FFEF8F1A9F0A86E0B7
:1015A000280E311C99E08916910409F02CCFBB203C
:1015B00009F47DC160E08BE00E94B70061E08CE03F
:1015C0000E94B700809100018E30D1F4E2E7F0E094
:1015D000F490F7FCBBC061E08EE00E94E500FF20C4
:1015E00009F484C092E0F91295C08091B100887F1F
:1015F00084608093B10089EF41C1F12CE12C2CCFA4
:101600008F3F09F0A3C08EE080930001E2E7F0E095
:10161000F490EFEFFE1609F499C0F1E0FF1631F1F6
:10162000FF1658F082E0F81609F43EC0F7FC8EC0B1
:1016300061E08EE00E94E500D5CF14BC15BC84B5F6
:10164000826084BD85B5816085BDE5E9F0E0E49107
:10165000F0E0EE0FFF1FE358FF4F85919491E9EA08
:10166000F0E0E491E093AC02F12CB5CF1092800051
:101670001092810080918100886080938100809128
:101680008100816080938100E5E9F0E0E491F0E081
:10169000EE0FFF1FE358FF4F85919491E9EAF0E0C8
:1016A000E491E093AB0297CF1092B0001092B1009A
:1016B0008091B00082608093B0008091B100816021
:1016C0008093B100E5E9F0E0E491F0E0EE0FFF1F58
:1016D000E358FF4F859194919093AA028093A902B9
:1016E000E9EAF0E0E491E093A80275CF85B5887F40
:1016F000836085BD89EF87BD4092B5025092B602E6
:101700006092B7027092B80280916E0082608093FE
:101710006E001CC0E1E0FE12A9C080918100887FAC
:101720008160809381008FE79EE39093890080938E
:1017300088004092B1025092B2026092B30270925D
:10174000B40280916F00826080936F008BEB91E018
:101750000E9421050E94E0046DEC71E082EA93E0B2
:101760000E94120581E00E94AF048CA59DA54197BF
:1017700008F45BC063E571E0CE0182960E94BF056C
:10178000ECA4FDA4E114F10429F18DE0E816F104C4
:1017900018F08DE0E82EF12CE8A5F9A5EE0DFF1D5F
:1017A000B080108268A579A56115710509F476C02D
:1017B000FB0101900020E9F73197AF01461B570B61
:1017C000CE0182960E949E0588A599A5E80EF91E75
:1017D000F701B0821A8219821C821B821E821D822E
:1017E0006AA17BA16115710529F04EA15FA1C80115
:1017F0000E949E0569ED71E0C8010E9488058C1564
:101800009D0561F0FC01608171816115710509F42C
:101810004AC044815581C6010E949E05C8010E94AC
:101820000A05CE0182960E940A054CA55DA568A511
:1018300079A582EA93E00E949B01F1E0F093B9025E
:1018400062E370E080E090E00E943B01C6010E94EC
:101850000A0580E090E0892B09F4C5CD0E940502BD
:10186000882309F4BCCD0E940000B9CDF2E0FF1638
:1018700021F0F1106BCF8FE73ECF8FE78093B3005D
:101880004092AD025092AE026092AF027092B002EE
:101890008091700082608093700058CFCE01829654
:1018A0000E94F80491CFC6010E94F804B7CF61E00E
:1018B0008BE00E94B70060E08CE00E94B7008EE0F1
:1018C0000E946F018091B902882309F4B9CF0E9468
:1018D000E0046DED71E082EA93E00E94120510923F
:1018E000B902AECFCF93DF93C2EAD3E02697CE0101
:1018F0000E940A0583E0CC36D807C1F7DF91CF916B
:101900000895BB274A3031F4992322F4BDE2909523
:1019100081959F4F0C948D0CBB27FB015527AA275F
:10192000880F991FAA1FA41710F0A41B839550516C
:10193000B9F7A05DAA3308F0A95DA193009779F7E4
:10194000B111B1931192CB010C94A60CDC01FC01F6
:10195000672F71917723E1F7329704C07C916D93E3
:1019600070836291AE17BF07C8F308952F923F921C
:101970004F925F926F927F928F929F92AF92BF929F
:10198000CF92DF92EF92FF920F931F93CF93DF934B
:10199000CDB7DEB7CA1BDB0B0FB6F894DEBF0FBEA8
:1019A000CDBF09942A88398848885F846E847D84F5
:1019B0008C849B84AA84B984C884DF80EE80FD80F7
:1019C0000C811B81AA81B981CE0FD11D0FB6F8946D
:1019D000DEBF0FBECDBFED010895A1E21A2EAA1BF6
:1019E000BB1BFD010DC0AA1FBB1FEE1FFF1FA217CF
:1019F000B307E407F50720F0A21BB30BE40BF50BCC
:101A0000661F771F881F991F1A9469F76095709554
:101A1000809590959B01AC01BD01CF010895EE0F1B
:101A2000FF1F0590F491E02D09940F931F93CF931E
:101A3000DF938230910510F482E090E0E091B103F1
:101A4000F091B20330E020E0B0E0A0E0309799F4EC
:101A50002115310509F44AC0281B390B2430310502
:101A6000D8F58A819B816115710589F1FB0193830A
:101A70008283FE0111C04081518102811381481788
:101A80005907E0F04817590799F4109761F012963A
:101A90000C93129713961C933296CF01DF91CF913E
:101AA0001F910F9108950093B1031093B203F4CFE7
:101AB0002115310551F04217530738F0A901DB0118
:101AC0009A01BD01DF01F801C1CFEF01F9CF909379
:101AD000B2038093B103CDCFFE01E20FF31F8193D8
:101AE00091932250310939832883D7CF2091AF03B6
:101AF0003091B003232B41F4209103013091040174
:101B00003093B0032093AF03209101013091020183
:101B10002115310541F42DB73EB740910501509193
:101B20000601241B350BE091AF03F091B003E217DF
:101B3000F307A0F42E1B3F0B2817390778F0AC01F0
:101B40004E5F5F4F2417350748F04E0F5F1F5093CD
:101B5000B0034093AF03819391939FCFF0E0E0E017
:101B60009CCFCF93DF930097E9F0FC01329713826B
:101B70001282A091B103B091B203ED0130E020E0F8
:101B80001097A1F420813181820F931F2091AF0320
:101B90003091B0032817390709F061C0F093B00302
:101BA000E093AF03DF91CF910895EA01CE17DF07ED
:101BB000E8F54A815B819E0141155105B1F7E901C4
:101BC000FB83EA8349915991C40FD51FEC17FD0798
:101BD00061F4808191810296840F951FE9019983B8
:101BE0008883828193819B838A83F0E0E0E0129670
:101BF0008D919C9113970097B9F52D913C91119778
:101C0000CD010296820F931F2091AF033091B00354
:101C10002817390739F6309751F51092B203109210
:101C2000B103B093B003A093AF03BCCFD383C283FF
:101C300040815181840F951FC817D90761F44E5F09
:101C40005F4F88819981480F591F518340838A8152
:101C50009B81938382832115310509F0B0CFF093E6
:101C6000B203E093B1039ECFFD01DC01C0CF13822C
:101C70001282D7CFB0E0A0E0E0E4FEE00C94B80C14
:101C80008C01009751F4CB010E94150D8C01C80105
:101C9000CDB7DEB7E0E10C94D40CFC01E60FF71FE2
:101CA0009C0122503109E217F30708F49DC0D901C5
:101CB000CD91DC911197C617D70798F0C530D105A3
:101CC00030F3CE0104978617970708F3C61BD70B8E
:101CD0002297C193D1936D937C93CF010E94B10D54
:101CE000D6CF5B01AC1ABD0A4C018C0E9D1EA09193
:101CF000B103B091B203512C412CF12CE12C10977F
:101D000031F58091AF039091B0038815990509F0E2
:101D10005CC04616570608F058C0809101019091AA
:101D20000201009741F48DB79EB740910501509193
:101D30000601841B950BE817F90708F055C0F093CE
:101D4000B003E093AF03F90171836083A0CF8D915D
:101D50009C91119712966C90129713967C90139702
:101D6000A815B90559F56C0142E0C40ED11CCA147E
:101D7000DB0420F1AC014A195B09DA0112961597D0
:101D800080F06282738251834083D9016D937C938A
:101D9000E114F10471F0D7011396FC93EE931297BE
:101DA00076CF22968C0F9D1FF90191838083F301DA
:101DB000EFCFF093B203E093B10369CF4816590611
:101DC00008F42C017D01D3019ACFCB010E94150D9F
:101DD0007C01009749F0AE01B8010E94F70EC801DE
:101DE0000E94B10D870153CF10E000E050CFFB01FE
:101DF000DC0102C001900D9241505040D8F7089587
:101E0000FB01DC0101900D920020E1F7089510E044
:101E1000C3E6D0E004C0FE010E940F0D2196C43637
:081E2000D107C9F7F894FFCFC8
:101E2800FF0000B3038000000040001400540002CB
:101E38000003000400050006000700080009000A66
:101E480000000000003B029B01C8018802F901D78D
:101E580001EB0100000000660339037C040F033224
:101E6800031F03100300000000F2049B017C04A878
:101E7800020D0A00536D6B00416C63004D746800DD
:101E88004C50470042746E00434F00483200466C85
:101E98006D004151004C434420544553540053793C
:101EA8007374656D204F6E6C696E65005379737439
:101EB800656D20496E697469616C697A6564002092
:101EC8002800292000476173206465746563746580
:101ED80064206F6E204D512D002900537065616B91
:101EE80065722061637469766174656400416C652C
:101EF800727421204761733A002E2E2E002E476FF0
:0E1F08006F6420636F6E646974696F6E2E00E3
:00000001FF
